:020000040000FA
:0400000021EF0CF0F0
:08000800056ED8CF06F0E0CF31
:1000100007F00001E9CF0DF0EACF08F0E1CF09F0D9
:10002000E2CF0AF0D9CF0BF0DACF0CF0F3CF14F017
:10003000F4CF15F0FACF16F000C00FF001C010F0A9
:1000400002C011F003C012F004C013F0A0AA2CEFFC
:1000500000F0A1BAFEEF05F00FC000F010C001F0F3
:1000600011C002F012C003F013C004F00E8E0DC0D8
:10007000E9FF08C0EAFF09C0E1FF0AC0E2FF0BC0C8
:10008000D9FF0CC0DAFF14C0F3FF15C0F4FF16C08F
:10009000FAFF055007C0E0FF06C0D8FF1000F76A5E
:1000A000AE0FF66E000EF7220900F55012000403A1
:1000B00000000000000000000000000000000DAE85
:1000C00003D0F2CF0EF0F29EF76AE00FF66E000E4C
:1000D000F7220900F5500DAE02D00EBEF28E1200CE
:1000E0004000400000000000000000000000000090
:1000F0000000000000000000000000000000000000
:10010000F76A100FF66E010EF7220900F550120083
:1001100006FFA00901A1010903150025FF75089537
:100120004081020904150025FF750895409102C021
:10013000F76A400FF66E010EF7220900F550120023
:100140000000F76A520FF66E010EF7220900F55013
:1001500012002000F76A640FF66E010EF722090004
:10016000F550120009022900010100C03209040003
:100170000002030000000921000100012220000705
:1001800005810340000A0705010340000A00F76AE1
:100190009E0FF66E010EF7220900F55012000100C5
:1001A000F76AB00FF66E010EF7220900F550120043
:1001B0001201100100000040610421000001010251
:1001C0000001F76AD20FF66E010EF7220900F55012
:1001D000120004030904080344004C0050001A03F1
:1001E00044004F005300650079002D0032003000BC
:1001F000300030002E002E006D926994689409EF53
:1002000006F06A6A689212EF06F0EC6BEC530AE1B2
:10021000036AEC51270FE96E000E0320EA6EEF6AC5
:10022000EC2BF4D71A6A010E1B6E196A000C010E32
:10023000F56FF5510F080EE3700EF525016E0F0EE8
:10024000036ED8B0032A01C0E9FF03C0EAFFEF6ADA
:10025000F52BEFD71E6A1D6A000C400E0401016FDA
:10026000050E036F026B880E006F046B050E076F9F
:10027000400E066F0001000C6A6A686A9F0E6B6E82
:10028000390E696E6E6AC1DFD2DF160E706E68A617
:1002900002D06896FCD76D98E0DF030E1F6E18EF52
:1002A00006F0698468986D821EEF06F0689C24EF62
:1002B00006F070A002D0D1DF7090689A2AEF06F0A5
:1002C000F0C020F0000CFF0E206E000CEE6B2652EA
:1002D0003EE0EE513F083BE31C50FC0F2BE2040FC5
:1002E000B1EF01F0036A2550F2CFF0F0F29E32DF59
:1002F000F0BFF28EEF6F1ED0036A2550F2CFF0F000
:10030000F29EFEDEF0BFF28EEF6F14D0036A25502E
:10031000F2CFF0F0F29E55DFF0BFF28EEF6F0AD011
:10032000036A2550F2CFF0F0F29E3ADFF0BFF28E72
:10033000EF6F00D0252A2606EE51EE2B036A400F00
:10034000E96E050E0320EA6EEFC0EFFFC0D726521C
:1003500004E1EE51400801E0196AEEC0F0F0B0DFB0
:10036000000CE8247D0FF66E030EF76ED8B0F72A66
:100370000A00F550FA6E0800F550F96EE402F80232
:100380000C032003256A1C6A05010351010A0001C0
:1003900009E0030A0CE0010A0DE0220A22E0030A48
:1003A00032E058D0120E266E030E1C6E55D0290E68
:1003B000266E52D0020E1C6E036A05010251210FF7
:1003C000E96E000E0320EA6EEFCF25F0036A255098
:1003D000F2CFEEF0F29E0001F4DEEEBFF28E266E5A
:1003E0003BD0120E256E253C01D00BD0036A255060
:1003F000F2CFEEF0F29EAEDEEEBFF28E266E2CD085
:1004000002D061DF35D0D89005010435036AF2CF00
:10041000EEF0F29E00018CDE0900F5CF03F0EEBF96
:10042000F28E256E253C01D013D0010E1C6ED890A3
:1004300005010435036AF2CFEEF0F29E000181DE81
:100440000900F5CF03F0EEBFF28E266E05D002D084
:100450003ADF0ED038DF0CD00501075305E12650F6
:10046000065D02E206C526F0010E196E00012EDFC0
:10047000000CED5304E1040E1F6ED9DEC1D0050E51
:100480001F6EF06F800EEF6F010EEE6FEE510F08D2
:10049000D8A0B6D0F16B036AEE51F2CFF5F0F29E20
:1004A000FEDDF5BFF28E000A51E0040EF16FD89028
:1004B000EE35036AF2CFF5F0F29E01DE0900F5CFCA
:1004C00003F0F5BFF28EF26F03C0F3F0EE51080DAA
:1004D000F350010F016E040E036ED8B0032A01C061
:1004E000E9FF03C0EAFFF2C0EFFFEE51080DF35041
:1004F000020F016E040E036ED8B0032A01C0E9FF9B
:1005000003C0EAFFF0C0ECFFED52EFC0EFFFD89060
:10051000EE35036AF2CFF5F0F29ED1DD0900F5CF9A
:1005200003F0F5BFF28EEF270350F023880EF46F2F
:10053000F3B1F481F3B3F483EE51080DF3CF01F07E
:10054000040E01C0E9FFEA6EF4C0EFFF036AEE514A
:10055000F2CFF5F0F29EA3DDF5BFF28E000A31E096
:10056000F183EE51080DF350060F016E040E036E79
:10057000D8B0032A01C0E9FF03C0EAFFF0C0ECFFD6
:10058000ED52EFC0EFFFD890EE35036AF2CFF5F0F1
:10059000F29E95DD0900F5CF03F0F5BFF28EEF274F
:1005A0000350F023EE51080DF350040F016E040EBA
:1005B000036ED8B0032A01C0E9FF03C0EAFF400E72
:1005C000EF6EF151060802E10E0EF16F036AEE5173
:1005D000F2CFF5F0F29E63DDF5BFF28E020801E086
:1005E000F189700EEE25016E0F0E036ED8B0032A4E
:1005F00001C0E9FF03C0EAFFF1C0EFFFEE2B46D7D1
:100600004CEF03F00501015100010DE0010A14E077
:10061000020A1EE0060A27E0030A2CE00E0A2CE07C
:10062000010A30E03DD01BC040F50501416B020ED0
:100630000001F06F45DE36D00501022D06D0010E17
:100640001B160001F06B3CDE02D000013CDE2AD01C
:100650000501022D05D01B820001F06B31DE02D0B6
:10066000000131DE1FD0020E196E02C524F0F06BBE
:1006700027DE18D087DE16D01AC040F5010EF06FC5
:100680001FDE10D005010251010808E302C51AF06F
:1006900002C5EDF00001EDD6F06B12DE000102D0D4
:1006A00012DE00D082EF04F01AC0EDF00501015116
:1006B000000107E00A0A0DE0010A2DE00D0A3DE005
:1006C0003ED00501406B416B020E0001F06FF8DD7A
:1006D00038D0ED531EE0010EED5D036AF2CFEFF06E
:1006E000F29E55DDEFBFF28E016E0501045DD8A0CC
:1006F00002D000010ED0036A0451270FE96E000EEC
:100700000320EA6EEFCF40F5010E0001F06FD8DD57
:1007100001D0D9DD16D0ED530EE0036A0501045176
:10072000270FE96E000E0320EA6E02C5EFFF0001FD
:10073000F06BC6DD01D0C7DD04D024DE02D0C3DDFE
:1007400000D082EF04F0EE91EDBFEE81ED9FEEA1BF
:1007500010D0036AED51F2CFEFF0F29EA0DCEFBFB4
:10076000F28E000A02E1000E01D0010E016E10D0DF
:100770000FD0036AED51F2CFEFF0F29E90DCEFBFA5
:10078000F28E000A02E1000E01D0010E016E00D0CF
:100790003AEF04F0EE91EDBFEE81ED9FEEA110D0A7
:1007A000ED51080DF350040F016E040E036ED8B026
:1007B000032A01C0E9FF03C0EAFF880EEF6E09D0EB
:1007C000ED51080DF3CF01F0040E01C0E9FFEA6E10
:1007D000EF6A49EF04F0EE91EDBFEE81ED9FEEA1DF
:1007E00010D0ED51080DF350040F016E040E036E8E
:1007F000D8B0032A01C0E9FF03C0EAFF840EEF6E00
:100800000AD0ED51080DF3CF01F0040E01C0E9FF4D
:10081000EA6E840EEF6E4FEF04F0EE91EDBFEE81C5
:10082000ED9FEEA110D0ED51080DF350040F016EB5
:10083000040E036ED8B0032A01C0E9FF03C0EAFF2B
:10084000EFCFEFF00AD0ED51080DF3CF01F0040E19
:1008500001C0E9FFEA6EEFCFEFF0EFAF02D0EFB5E6
:1008600002D0000E01D0010E016E59EF04F004C554
:10087000EDF069D7015229E005010151010A00019B
:1008800005E0020A09E0030A0DE01DD004C5EDF001
:1008900081D7F06B15DD19D004C5EDF09CD7F06B56
:1008A0000FDD13D00501406B416B04C5EDF0000175
:1008B000B4D7015204E0010E0501406F0001020EA1
:1008C000F06FFEDC02D0FFDC00D082EF04F0050107
:1008D000015100D00001F7DC00D082EF04F0196A6A
:1008E000050100517F0B000107E0010A06E0030A41
:1008F00005E0230A04E004D085D6D6D6B8D7E7D7DA
:10090000E2DC00D0A9EF05F0ED51080DF3CF01F0C6
:10091000040E01C0E9FFEA6EEFCFEFF0EE510208DE
:1009200006E1EFAD02D0EE6B02D0010EEE6FEE519C
:10093000030812E1840EEF6FED51080DF350040F20
:10094000016E040E036ED8B0032A01C0E9FF03C094
:10095000EAFF840EEF6E09D0EE2D03D0C80EEF6FC4
:1009600004D0EE5302E1880EEF6F036A010E026EAF
:10097000ED51006E05E0D89002360336002EFBD70D
:100980000250FF0A006EFF0E031A00501D1603509E
:100990001E16D890ED35036AF2CFF2F0F29E5FECAE
:1009A00000F00900F5CF03F0F2BFF28EF06F03C044
:1009B000F1F0ED51080DF350010F016E040E036EBE
:1009C000D8B0032A01C0E9FF03C0EAFFF0C0EFFF7F
:1009D000F1B1EF81F1B3EF83ED51080DF3CF01F0E9
:1009E000040E01C0E9FFEA6EEFC0EFFF000CED510D
:1009F000080DF350040F016E040E036ED8B0032AE5
:100A000001C0E9FF03C0EAFFEFCFF1F0F1BF5BD017
:100A1000ED51080DF350050F016E040E036ED8B0B2
:100A2000032A01C0E9FF03C0EAFFEEC0EFFFF05167
:100A3000020816E1ED51080DF350040F016E040E8B
:100A4000036ED8B0032A01C0E9FF03C0EAFFEFCF6D
:100A5000F1F0F1AD02D0F06B02D0010EF06F13D0C7
:100A6000F051040810E1ED51080DF3CF01F0040E30
:100A700001C0E9FFEA6EEFCFF1F0F1AD03D0010E56
:100A8000F06F01D0F06BF02D03D0C80EF16F04D0E1
:100A9000F05302E1880EF16FEFB1F181EFB3F18312
:100AA000ED51080DF350040F016E040E036ED8B023
:100AB000032A01C0E9FF03C0EAFFF1C0EFFF010E06
:100AC000016E03D000D0000E016E000CED5303E167
:100AD0002DEC01F00FD0036A010E026EED51006E95
:100AE00005E0D89002360336002EFBD702501D12C7
:100AF00003501E12000CEEC06EFFEE5303E0040E16
:100B00001F6E02D0020E1F6E8BEF05F01A6A196A73
:100B100024C0EEF0F0D798EF05F0ED5309E1192C61
:100B200003D066EC01F004D01950020801E1EED7C1
:100B3000000C6C30EC6FEC33EC331F0EEC176C5286
:100B40003BE1040100513C0B34081BE1046B000144
:100B5000C6D6203C05D0ED6B030EEE6FD5DE0ED071
:100B6000ED6B020EEE6FD0DE2050FE0807E0ED6B5D
:100B7000EF6B20C0EEF0040EF06F39DF6D9819D0E6
:100B8000040100513C0B040815E10001ED6B9EDFF0
:100B9000ED6B020EEE6FB8DE2050FE080AE0203C3E
:100BA00001D007D0ED6BEF6B20C0EEF0010EF06FBF
:100BB0001EDF040120D000016C50040812E1FF0E7A
:100BC000206EED6BAADF203C01D008D0ED6BEF6BFF
:100BD00020C0EEF0020EF06F0ADF02D02DEC01F023
:100BE00009D06CB404D0ECC0EDF070DF03D0ECC0E1
:100BF000EDF093DF040100012FEF06F01F5201E139
:100C00002FD068522DE068A404D069A402D0FCEF74
:100C100000F06DA201D024D068A204D069A202D055
:100C200001EF01F068A004D069A002D03CEF01F010
:100C300068A804D069A802D051EF01F068AC04D0D4
:100C400069AC02D056EF01F068AA04D069AA02D0BC
:100C500059EF01F068A604D069A602D06AD7689659
:100C6000A19A2CEF00F0D36BD35107080AE3D89078
:100C7000D23302E28B9201D08B828B908B80D32B6C
:100C8000F3D7000CD26BD251070810E38B9094502D
:100C90000209946E82B202D0D89001D0D880D333AA
:100CA0009450FD0B946E8B80D22BEDD7D3C001F006
:100CB0006AEF06F08B908B924F0E006E002EFED7DF
:100CC00000D08B84D890D037810ED013D0C0D2F012
:100CD000CADFD8D701C0D1F08B94D1C001F0000C8D
:100CE000506A5050070815E3036A50502B0F016EED
:100CF000000E032201C051F003C052F050C0D0F0EA
:100D0000D9DF52C0EAFF51C0E9FF01C0EFFF502A0E
:100D1000E8D7000C6D6A696A080E6F6E945030094E
:100D2000946E1F6A186AF2BE188EF29E05EC01F0EE
:100D300018BEF28E1E6A1D6A55EF0CF0F2CF97F0C6
:100D4000F29E96C0A9FFA69CA69EA680A85097BF1B
:100D5000F28E986F010E9625F2CF9AF0F29EA96E50
:100D6000A69CA69EA680A8509ABFF28E9A6F020EED
:100D70009625F2CF9CF0F29EA96EA69CA69EA68018
:100D8000A8509CBFF28E036A98C002F09AC001F08E
:100D9000006E000CC69A010EC66E000EC76E0F0ED6
:100DA000936E880E946EC69A010EC66E000EC76EC4
:100DB0002A90000CEA6AD60EE96EEF500EE00F0E94
:100DC000016E006A002EFED7012EFBD78F0E006E3B
:100DD000002EFED70000EF2EF2D7000C080E936E07
:100DE000880E946E8A848A9237EF07F08A928A94EA
:100DF000030E006E002EFED700D0000CEB6BEB5103
:100E000007080CE3D890EA3702E28A9001D08A8082
:100E10008A8200D08A9200D0EB2BF1D7000CE06BD5
:100E2000E05107080CE38A8200D082BE02D0D8903D
:100E300001D0D880E1378A9200D0E02BF1D7E1C011
:100E400001F0000C8A848A92030E006E002EFED7F9
:100E500000D0000CCBDF050EEA6FD0DFE0DF01C071
:100E6000DFF0F0DFDFC001F0000CD781B7D7F2DF91
:100E7000015202E1D79104D0D651D607000AF6E11B
:100E8000000ED7B1010E016EA2EF07F0D651080D8A
:100E9000F350040F016E040E036ED8B0032A01C094
:100EA000E9FF03C0EAFFEFCFDEF0DEBF45D0D65149
:100EB000080DF350060F016E040E036ED8B0032A1E
:100EC00001C0E9FF03C0EAFFECCF03F0ED52EFCF22
:100ED000DFF003C0E0F0DD6BDC6BDD51DA5D1AE3BF
:100EE00003E1D951DC5D16E2D7C0E9FFD8C0EAFFC3
:100EF000EFCFE3F0E0C0EAFFDFC0E9FFE3C0EFFFC0
:100F0000DF2BD8B4E02BD72BD8B4D82BDC2BD8B41C
:100F1000DD2BE3D7186AF2BE188EF29ED6C0EDF034
:100F2000DAC0EFF0D9C0EEF0DBC0F0F060DD18BE43
:100F3000F28E015003D000D0000E016E000C030EA3
:100F4000D66F93D701C096F096C097F0490E986F70
:100F5000010ED66FD86B960ED76FDA6B400ED96F35
:100F6000020EDB6F93DF000CD751D96F080ED86FDC
:100F7000D9A1819CD9B1818C818ED933819ED82F02
:100F8000F7D7000C880E946E0F0E936E000C0F0EA8
:100F9000936E080E946EC69A340EC66E400EC76EDF
:100FA000C688C79E898A2A80000C0C0E966FC6DE02
:100FB00003C091F002C090F001C08FF000C08EF02D
:100FC0000F0E966FBBDE03C095F002C094F001C017
:100FD00093F000C092F0DEDE0F0E936E050ED66F1A
:100FE000E9DEADDF8A9A320ED66FE4DE8A8A020E1F
:100FF000D66FE0DE8A94030EEA6F00DF90C096F0B1
:1010000090C0EAF0FBDE8FC096F08FC0EAF0F6DE0B
:101010008EC096F08EC0EAF0F1DE01DF01C08DF0E7
:101020008DC0D7F0A1DF010E8E27D8B08F2BD8B49A
:10103000902BD8B4912B9151955D0CE3EEE190513A
:10104000945D08E3EAE18F51935D04E3E6E18E519C
:10105000925DE3E28A84050ED66FACDE93DF0F0E5D
:10106000936E050ED66FA6DE92DF000C186AF2BEF4
:10107000188EF29E05EC01F018BEF28E6D6A140E09
:101080006F6E696A6D86010E1F6E4AEF08F06DB6CD
:1010900001D0ECD71F2C0BD06DBA09D0686A696AF1
:1010A000A08AC00EF212110E696E020E1F6E000CA5
:1010B000DB51080DF350020F016E040E036ED8B021
:1010C000032A01C0E9FF03C0EAFFECCF03F0ED52B1
:1010D000EFCFE0F003C0E1F0DB51080DF350010F5A
:1010E000016E040E036ED8B0032A01C0E9FF03C0ED
:1010F000EAFFEF50036AE36F03C0E4F0DB51080D31
:10110000F3CF01F0040E01C0E9FFEA6EEFCFE2F089
:10111000E2B1E481E2B3E483E451DF5D08E303E19B
:10112000DE51E35D04E2E4C0DFF0E3C0DEF0E46B37
:10113000E36BE451DF5D1AE303E1DE51E35D16E2A8
:10114000E0C0E9FFE1C0EAFFEFCFE7F0DDC0EAFF72
:10115000DCC0E9FFE7C0EFFFDC2BD8B4DD2BE02BD0
:10116000D8B4E12BE32BD8B4E42BE3D7DEC001F0F5
:10117000DFC002F0C7EF08F0D6C0DBF0D8C0DDF06A
:10118000D7C0DCF0DAC0DFF0D9C0DEF091D702C002
:10119000DAF001C0D9F0186AF2BE188EF29ED6C0FD
:1011A000EDF0020EEE6F84EC04F018BEF28ED9C0A2
:1011B00001F0DAC002F0000C0F0E936E8A9A320E24
:1011C000D66FF8DD8A8A020ED66FF4DD936B926BD0
:1011D0009351905D38E303E18F51925D34E2010E4B
:1011E000D66FD86B940ED76FDA6B400ED96FC4DF11
:1011F000010E8F5D006E000E9059036E0050925DDF
:1012000006E10350935D03E191C0D5F002D0400E9A
:10121000D56FD46BD551D45D0EE2036AD451940FCF
:10122000E96E000E0320EA6EEFCFD6F0D6C0D7F0FD
:101230009BDED42BEFD71DB202D029DFFCD7922B37
:10124000D8B4932BC5D70F0E936EFBEF0BF0F2CFF4
:10125000CEF0F29E8DC0A9FFA69CA69EA680A850A7
:10126000CEBFF28E8E6F450E8F6F010ED66FD86B8C
:101270008E0ED76FDA6B400ED96F020EDB6F06DE73
:10128000FBEF0BF0E7DD01C08DF08DC08EF0530E4B
:101290008F6F010ED66FD86B8D0ED76FDA6B400E45
:1012A000D96F020EDB6FF2DDFBEF0BF09FDD060E58
:1012B000EA6FA4DDC7DD000C99DD040EEA6F9EDD48
:1012C000C1DD000CF3DF92DDD80EEA6F97DD93C02D
:1012D00095F093C0EAF092DD92C095F092C0EAF0EA
:1012E0008DDD91C095F091C0EAF088DD8A84AADD99
:1012F000E3DFFBEF0BF0E26BE16BE251E05D22E339
:1013000003E1DF51E15D1EE2E36BE351070816E301
:101310008A8200D0E151DD25E46FE251DE21E56FE4
:1013200082BE02D0D89001D0D880E5C0EAFFE4C0E8
:10133000E9FFEF368A9200D0E32BE7D7E12BD8B450
:10134000E22BDBD7C0EF09F051DD030EEA6F56DD6B
:10135000D7C0DDF0D7C0EAF051DDD6C0DDF0D6C091
:10136000EAF04CDDD5C0DDF0D5C0EAF047DDDAC0EB
:10137000DEF0D9C0DDF0DCC0E0F0DBC0DFF0BBD7D1
:1013800061DDD2EF09F094C0D8F093C0D7F092C0DD
:10139000D6F091C0D5F0DA6B950ED96FDC6B400EAC
:1013A000DB6FD2D7010ED66FD86B950ED76FDA6B85
:1013B000400ED96F020EDB6F69DDFBEF0BF076DFBD
:1013C00015DD020EEA6F1ADDE6C0E9F0E6C0EAF0CC
:1013D00015DDE5C0E9F0E5C0EAF010DDE4C0E9F0B4
:1013E000E4C0EAF00BDDE8C0EAF008DD2BDD21EF18
:1013F0000AF0DE6BDD6BDE51DC5D2FE303E1DB51D8
:10140000DD5D2BE2DD51D525DF6FDE51D621E06FAA
:10141000000ED721E16F000ED821E26FD951DD25F2
:10142000E96EDA51DE21EA6EEFCFE3F0E2C0E7F0D9
:10143000E1C0E6F0E0C0E5F0DFC0E4F0E3C0E8F0D2
:10144000BED7270E006E002EFED700D003DD01B000
:10145000FDD7DD2BD8B4DE2BCED72EDF4CEF0AF034
:101460001DB202D014DEFCD7010ED66FD86B950EDC
:10147000D76FDA6B400ED96F7FDE94C0D8F093C07F
:10148000D7F092C0D6F091C0D5F0DA6B950ED96F37
:10149000DC6B400EDB6FADD7310E956F460E966F4D
:1014A000010ED66FD86B950ED76FDA6B400ED96FE1
:1014B000020EDB6FEBDCFBEF0BF0F8DE97DC010ECE
:1014C000EA6F9CDC8DC0EAF099DCBCDCF5DEFBEF5A
:1014D0000BF04A0E8D6F8A949F0EEA6F8FDC9FDCB3
:1014E00001C08EF09CDC01C08FF099DC01C090F04F
:1014F0008A84010ED66FD86B8D0ED76FDA6B400ED3
:10150000D96F020EDB6FC2DCFBEF0BF08D6B8D51E0
:101510001F0816E3036A8D518E0F016E000E032221
:1015200001C0CEF003C0CFF08DC0D0F05AEC06F071
:10153000CFC0EAFFCEC0E9FF01C0EFFF8D2BE7D798
:10154000520EAE6F010ED66FD86B8E0ED76FDA6B60
:10155000400ED96F020EDB6F99DCFBEF0BF08B9026
:101560008B924F0E006E002EFED700D08B84D89049
:101570009237928F92C0D2F033EC06F093C0D2F043
:1015800033EC06F08B94000C8F6B8F511F0811E326
:10159000010E8F25036A8D25E96E8E510320EA6EB8
:1015A000EFCF91F08FC092F091C093F0D8DF8F2BE6
:1015B000ECD7FBEF0BF08F6B8F511F0819E3036A19
:1015C0008F51900F016E000E032203C0D1F0036A09
:1015D0008F512B0FE96E000E0320EA6EEFCFD2F091
:1015E000D1C0EAFF01C0E9FFD2C0EFFF8F2BE4D7E3
:1015F0008F6B8F511F0819E3036A8F512B0F016EF8
:10160000000E032203C0D1F0036A8F518D25E96ECD
:101610008E510320EA6EEFCFD2F0D1C0EAFF01C0B5
:10162000E9FFD2C0EFFF8F2BE4D7430EB26F010E5C
:10163000D66FD86B900ED76FDA6B400ED96F020E53
:10164000DB6F24DCFBEF0BF01DA2D5D0010ED66FB3
:10165000D86B4D0ED76FDA6B280ED96F8DDD4D50DC
:10166000090A35E0020A39E0040A3DE01F0A46E0B3
:10167000010A4FE0310A4FE0010AD8B463D0B10A41
:10168000D8B463D0010AD8B463D0030AD8B461D007
:10169000010AD8B46FD0070AD8B47DD0010AD8B4F3
:1016A0008BD0030AD8B48BD0090AD8B489D03E0AAB
:1016B000D8B489D0030AD8B487D0010AD8B488D066
:1016C000120AD8B48BD0030AD8B48CD093D04EA0D1
:1016D00002D0899801D089888ED04EA002D08A9EEF
:1016E00001D08A8E88D04EA002D08A9A01D08A8AF0
:1016F0004EA202D08A9801D08A887DD04EC08EF04A
:101700004FC08DF04EC090F04FC08FF050C091F0A0
:1017100053D54BDC70D04EC0A9FF4FC0A8FFA69C8C
:10172000A69EA684F2CF00F0F29E0F01550EA76E82
:10173000AA0EA76EA682A6B2FED7A6940050F212F9
:10174000000159D04EC08DF082D59FEC07F053D0E8
:1017500099D54EC090F04FC08FF050C08EF051C060
:101760008DF04EC094F04FC093F050C092F051C035
:1017700091F0A8D54EC090F04FC08FF050C08EF0C1
:1017800051C08DF04EC094F04FC093F050C092F015
:1017900051C091F0F8D54EC090F04FC08FF050C0BE
:1017A0008EF051C08DF04EC094F04FC093F050C0F9
:1017B00092F051C091F054D64EC08DF07ED689D6AD
:1017C000C2EC07F018D0A2D68E6B4D0E8D6FDCD612
:1017D0004EC092F04FC093F0C2DE0DD08E6B4D0E16
:1017E0008D6FE9D64E2C03D0C7EC07F002D0CAECBF
:1017F00006F001D000D06FEF0CF0C9CF4DF04D389E
:101800004E6E4E32070E4E164D501F0B4F6E4E2C25
:101810000BD0036A4F502B0FE96E000E0320EA6EC7
:10182000EFCFC9FF2A9202D0FF0EC96E4E500208B8
:1018300001E12A824E50030802E170EC06F074EFD9
:101840000CF0F86AD09E0D8EEA6AE96AC150C00BAE
:101850000F09C16E070EB46E1F6A216A040E226E54
:101860000C0E236E266A286A296A4B6A4C6AF29C1F
:10187000F29EF2BEFDD7C290C150C00B0F09C16EDF
:10188000870ED56ECD6A2F0E926E0F0E936E880E58
:10189000946E8A848A928B948A8A8A8889882A900C
:1018A0002A9270EC06F08AEF06F0F2CF4DF0F29E2D
:1018B000120EA96EA69CA69EA680A8504DBEF28EC2
:1018C000000A06E0D5EC07F08A988A88899802D049
:1018D000C7EC07F047EC08F01A5201E0B5D62AA091
:0C18E00003D0C7A001D089D7F5D70300C2
:020000040030CA
:0E0000002C0E381E008181000FC00FE00F4053
:00000001FF
;PIC18F2550
